:020000040000FA
:040000005FEF01F0BD
:020004000000FA
:040008008CEF00F089
:08001800110092909292929661
:1000200092989294929A93809382938494809482EB
:10003000948494869488948A949C949E956A1200E1
:10004000896A8B9C8B9E8C6A1200019001920194AC
:1000500001960198019A019C026A036A046A056A82
:10006000066A0A6A0B6A106A0F6A0E6A0D6A076AE4
:10007000086A099009920994099683681200F28E21
:10008000F28CF288F19CF086F28A1200010EEA6E80
:10009000E96A010EE26EE16A1200EC0ED76E780E8C
:1000A000D66E1200880ED56E1200F2944DEC00F060
:1000B00001B230EC01F001B46BEC00F001B66DEC74
:1000C00000F001B800EC01F001BA30EC01F001BC25
:1000D00030EC01F012000194120001961200FF0EA4
:1000E000046E042E71EF00F012008B8C6FEC00F0A8
:1000F0008B9C120002C0E9FF82CF03F03F0E031475
:10010000EE6E1200F2927AEC00F0022A75EC00F02A
:100110001200F09001801200F2B455EC00F0F2B23F
:1001200082EC00F0F0B089EC00F011000F0E051623
:10013000000E055CD8B4D2EC00F0010E055CD8B41A
:10014000D5EC00F0020E055CD8B4D8EC00F0030E3C
:10015000055CD8B4DBEC00F0040E055CD8B4DEEC32
:1001600000F0050E055CD8B4E1EC00F0060E055C6D
:10017000D8B4E4EC00F01200300E06160642064237
:1001800006420642010E065CD8B4EAEC00F0020E0C
:10019000065CD8B4EDEC00F0030E065CD8B4F0ECCD
:1001A00000F01200820E8C6E1200CF0E8C6E1200C8
:1001B000910E8C6E1200850E8C6E1200CC0E8C6E21
:1001C0001200A40E8C6E1200A00E8C6E12008F0E08
:1001D0008C6E1200898089921200899089821200A7
:1001E000898089821200000E025CD8B457EF01F0BA
:1001F0001200030E0B6EE80E0A6E099401821200C3
:1002000001980A06D8B012000B06D8B01200098671
:100210001200070E0F6ED00E106E0992018A1200A6
:100220001006D8B012000F06D8B012000982019A49
:1002300012000F0E0D6EA00E0E6E0994018C1200AE
:100240000E06D8B012000D06D8B012000984019C29
:100250001200170E086E700E076E099001821200D0
:100260000706D8B012000806D8B012000980019223
:100270001200200E0C6E0C2E3BEF01F01200898450
:1002800039EC01F089941200E16AF3EC00F0E652D7
:10029000056E066E96EC00F0BCEC00F029EC01F067
:1002A0005AEC01F00250E15CD8A447EF01F057EF9F
:1002B00001F0120009A05AEF01F0099012000DECB4
:1002C00000F020EC00F025EC00F03FEC00F046ECF4
:1002D00000F052EC00F04DEC00F001B044EC01F005
:020000040030CA
:0100010006F8
:010003001EDE
:010005008179
:00000001FF
